{
  "_format": "hh-sol-artifact-1",
  "contractName": "CredentialManager",
  "sourceName": "contracts/CredentialManager.sol",
  "abi": [
    {
      "inputs": [],
      "stateMutability": "nonpayable",
      "type": "constructor"
    },
    {
      "inputs": [],
      "name": "admin",
      "outputs": [
        {
          "internalType": "address",
          "name": "",
          "type": "address"
        }
      ],
      "stateMutability": "view",
      "type": "function"
    },
    {
      "inputs": [
        {
          "internalType": "address",
          "name": "user",
          "type": "address"
        },
        {
          "internalType": "uint256",
          "name": "typeId",
          "type": "uint256"
        },
        {
          "internalType": "string",
          "name": "additionalMetadata",
          "type": "string"
        }
      ],
      "name": "assignCredential",
      "outputs": [],
      "stateMutability": "nonpayable",
      "type": "function"
    },
    {
      "inputs": [
        {
          "internalType": "string",
          "name": "name",
          "type": "string"
        },
        {
          "internalType": "string",
          "name": "arweaveTxHash",
          "type": "string"
        }
      ],
      "name": "createCredentialType",
      "outputs": [],
      "stateMutability": "nonpayable",
      "type": "function"
    },
    {
      "inputs": [
        {
          "internalType": "uint256",
          "name": "",
          "type": "uint256"
        }
      ],
      "name": "credentialTypes",
      "outputs": [
        {
          "internalType": "string",
          "name": "name",
          "type": "string"
        },
        {
          "internalType": "string",
          "name": "arweaveTxHash",
          "type": "string"
        }
      ],
      "stateMutability": "view",
      "type": "function"
    },
    {
      "inputs": [
        {
          "internalType": "uint256",
          "name": "typeId",
          "type": "uint256"
        }
      ],
      "name": "getCredentialTypeMetadata",
      "outputs": [
        {
          "internalType": "string",
          "name": "",
          "type": "string"
        }
      ],
      "stateMutability": "view",
      "type": "function"
    },
    {
      "inputs": [
        {
          "internalType": "address",
          "name": "user",
          "type": "address"
        }
      ],
      "name": "getCredentials",
      "outputs": [
        {
          "components": [
            {
              "internalType": "uint256",
              "name": "typeId",
              "type": "uint256"
            },
            {
              "internalType": "string",
              "name": "additionalMetadata",
              "type": "string"
            }
          ],
          "internalType": "struct CredentialManager.UserCredential[]",
          "name": "",
          "type": "tuple[]"
        }
      ],
      "stateMutability": "view",
      "type": "function"
    },
    {
      "inputs": [],
      "name": "nextCredentialTypeId",
      "outputs": [
        {
          "internalType": "uint256",
          "name": "",
          "type": "uint256"
        }
      ],
      "stateMutability": "view",
      "type": "function"
    },
    {
      "inputs": [
        {
          "internalType": "uint256",
          "name": "typeId",
          "type": "uint256"
        },
        {
          "internalType": "string",
          "name": "newArweaveTxHash",
          "type": "string"
        }
      ],
      "name": "updateCredentialType",
      "outputs": [],
      "stateMutability": "nonpayable",
      "type": "function"
    },
    {
      "inputs": [
        {
          "internalType": "address",
          "name": "user",
          "type": "address"
        },
        {
          "internalType": "uint256",
          "name": "credentialIndex",
          "type": "uint256"
        },
        {
          "internalType": "string",
          "name": "newMetadata",
          "type": "string"
        }
      ],
      "name": "updateUserCredentialMetadata",
      "outputs": [],
      "stateMutability": "nonpayable",
      "type": "function"
    },
    {
      "inputs": [
        {
          "internalType": "address",
          "name": "",
          "type": "address"
        },
        {
          "internalType": "uint256",
          "name": "",
          "type": "uint256"
        }
      ],
      "name": "userCredentials",
      "outputs": [
        {
          "internalType": "uint256",
          "name": "typeId",
          "type": "uint256"
        },
        {
          "internalType": "string",
          "name": "additionalMetadata",
          "type": "string"
        }
      ],
      "stateMutability": "view",
      "type": "function"
    }
  ],
  "bytecode": "0x608060405234801561001057600080fd5b5033600360006101000a81548173ffffffffffffffffffffffffffffffffffffffff021916908373ffffffffffffffffffffffffffffffffffffffff160217905550611818806100616000396000f3fe608060405234801561001057600080fd5b506004361061009e5760003560e01c80639dca4903116100665780639dca490314610158578063dc0c64f914610174578063dc78be5a146101a4578063f4b88554146101c2578063f851a440146101f35761009e565b806332006bad146100a357806337424f93146100bf57806346b2bd7a146100db57806384270608146100f75780639364ace914610127575b600080fd5b6100bd60048036038101906100b89190610dd5565b610211565b005b6100d960048036038101906100d49190610e44565b610389565b005b6100f560048036038101906100f09190610dd5565b6104c8565b005b610111600480360381019061010c9190610ea0565b610651565b60405161011e919061105a565b60405180910390f35b610141600480360381019061013c919061107c565b61078b565b60405161014f929190611115565b60405180910390f35b610172600480360381019061016d9190611145565b610854565b005b61018e600480360381019061018991906111bd565b61099c565b60405161019b91906111ea565b60405180910390f35b6101ac610a87565b6040516101b9919061120c565b60405180910390f35b6101dc60048036038101906101d791906111bd565b610a8d565b6040516101ea929190611227565b60405180910390f35b6101fb610bc1565b604051610208919061126d565b60405180910390f35b600360009054906101000a900473ffffffffffffffffffffffffffffffffffffffff1673ffffffffffffffffffffffffffffffffffffffff163373ffffffffffffffffffffffffffffffffffffffff16146102a1576040517f08c379a0000000000000000000000000000000000000000000000000000000008152600401610298906112fa565b60405180910390fd5b60025482106102e5576040517f08c379a00000000000000000000000000000000000000000000000000000000081526004016102dc90611366565b60405180910390fd5b600160008473ffffffffffffffffffffffffffffffffffffffff1673ffffffffffffffffffffffffffffffffffffffff16815260200190815260200160002060405180604001604052808481526020018381525090806001815401808255809150506001900390600052602060002090600202016000909190919091506000820151816000015560208201518160010190816103819190611592565b505050505050565b600360009054906101000a900473ffffffffffffffffffffffffffffffffffffffff1673ffffffffffffffffffffffffffffffffffffffff163373ffffffffffffffffffffffffffffffffffffffff1614610419576040517f08c379a0000000000000000000000000000000000000000000000000000000008152600401610410906112fa565b60405180910390fd5b600254821061045d576040517f08c379a000000000000000000000000000000000000000000000000000000000815260040161045490611366565b60405180910390fd5b602b8151146104a1576040517f08c379a0000000000000000000000000000000000000000000000000000000008152600401610498906116b0565b60405180910390fd5b8060008084815260200190815260200160002060010190816104c39190611592565b505050565b600360009054906101000a900473ffffffffffffffffffffffffffffffffffffffff1673ffffffffffffffffffffffffffffffffffffffff163373ffffffffffffffffffffffffffffffffffffffff1614610558576040517f08c379a000000000000000000000000000000000000000000000000000000000815260040161054f906112fa565b60405180910390fd5b600160008473ffffffffffffffffffffffffffffffffffffffff1673ffffffffffffffffffffffffffffffffffffffff1681526020019081526020016000208054905082106105dc576040517f08c379a00000000000000000000000000000000000000000000000000000000081526004016105d39061171c565b60405180910390fd5b80600160008573ffffffffffffffffffffffffffffffffffffffff1673ffffffffffffffffffffffffffffffffffffffff168152602001908152602001600020838154811061062e5761062d61173c565b5b9060005260206000209060020201600101908161064b9190611592565b50505050565b6060600160008373ffffffffffffffffffffffffffffffffffffffff1673ffffffffffffffffffffffffffffffffffffffff168152602001908152602001600020805480602002602001604051908101604052809291908181526020016000905b828210156107805783829060005260206000209060020201604051806040016040529081600082015481526020016001820180546106ef906113b5565b80601f016020809104026020016040519081016040528092919081815260200182805461071b906113b5565b80156107685780601f1061073d57610100808354040283529160200191610768565b820191906000526020600020905b81548152906001019060200180831161074b57829003601f168201915b505050505081525050815260200190600101906106b2565b505050509050919050565b600160205281600052604060002081815481106107a757600080fd5b9060005260206000209060020201600091509150508060000154908060010180546107d1906113b5565b80601f01602080910402602001604051908101604052809291908181526020018280546107fd906113b5565b801561084a5780601f1061081f5761010080835404028352916020019161084a565b820191906000526020600020905b81548152906001019060200180831161082d57829003601f168201915b5050505050905082565b600360009054906101000a900473ffffffffffffffffffffffffffffffffffffffff1673ffffffffffffffffffffffffffffffffffffffff163373ffffffffffffffffffffffffffffffffffffffff16146108e4576040517f08c379a00000000000000000000000000000000000000000000000000000000081526004016108db906112fa565b60405180910390fd5b602b815114610928576040517f08c379a000000000000000000000000000000000000000000000000000000000815260040161091f906116b0565b60405180910390fd5b604051806040016040528083815260200182815250600080600254815260200190815260200160002060008201518160000190816109669190611592565b50602082015181600101908161097c9190611592565b50905050600260008154809291906109939061179a565b91905055505050565b606060025482106109e2576040517f08c379a00000000000000000000000000000000000000000000000000000000081526004016109d990611366565b60405180910390fd5b6000808381526020019081526020016000206001018054610a02906113b5565b80601f0160208091040260200160405190810160405280929190818152602001828054610a2e906113b5565b8015610a7b5780601f10610a5057610100808354040283529160200191610a7b565b820191906000526020600020905b815481529060010190602001808311610a5e57829003601f168201915b50505050509050919050565b60025481565b6000602052806000526040600020600091509050806000018054610ab0906113b5565b80601f0160208091040260200160405190810160405280929190818152602001828054610adc906113b5565b8015610b295780601f10610afe57610100808354040283529160200191610b29565b820191906000526020600020905b815481529060010190602001808311610b0c57829003601f168201915b505050505090806001018054610b3e906113b5565b80601f0160208091040260200160405190810160405280929190818152602001828054610b6a906113b5565b8015610bb75780601f10610b8c57610100808354040283529160200191610bb7565b820191906000526020600020905b815481529060010190602001808311610b9a57829003601f168201915b5050505050905082565b600360009054906101000a900473ffffffffffffffffffffffffffffffffffffffff1681565b6000604051905090565b600080fd5b600080fd5b600073ffffffffffffffffffffffffffffffffffffffff82169050919050565b6000610c2682610bfb565b9050919050565b610c3681610c1b565b8114610c4157600080fd5b50565b600081359050610c5381610c2d565b92915050565b6000819050919050565b610c6c81610c59565b8114610c7757600080fd5b50565b600081359050610c8981610c63565b92915050565b600080fd5b600080fd5b6000601f19601f8301169050919050565b7f4e487b7100000000000000000000000000000000000000000000000000000000600052604160045260246000fd5b610ce282610c99565b810181811067ffffffffffffffff82111715610d0157610d00610caa565b5b80604052505050565b6000610d14610be7565b9050610d208282610cd9565b919050565b600067ffffffffffffffff821115610d4057610d3f610caa565b5b610d4982610c99565b9050602081019050919050565b82818337600083830152505050565b6000610d78610d7384610d25565b610d0a565b905082815260208101848484011115610d9457610d93610c94565b5b610d9f848285610d56565b509392505050565b600082601f830112610dbc57610dbb610c8f565b5b8135610dcc848260208601610d65565b91505092915050565b600080600060608486031215610dee57610ded610bf1565b5b6000610dfc86828701610c44565b9350506020610e0d86828701610c7a565b925050604084013567ffffffffffffffff811115610e2e57610e2d610bf6565b5b610e3a86828701610da7565b9150509250925092565b60008060408385031215610e5b57610e5a610bf1565b5b6000610e6985828601610c7a565b925050602083013567ffffffffffffffff811115610e8a57610e89610bf6565b5b610e9685828601610da7565b9150509250929050565b600060208284031215610eb657610eb5610bf1565b5b6000610ec484828501610c44565b91505092915050565b600081519050919050565b600082825260208201905092915050565b6000819050602082019050919050565b610f0281610c59565b82525050565b600081519050919050565b600082825260208201905092915050565b60005b83811015610f42578082015181840152602081019050610f27565b60008484015250505050565b6000610f5982610f08565b610f638185610f13565b9350610f73818560208601610f24565b610f7c81610c99565b840191505092915050565b6000604083016000830151610f9f6000860182610ef9565b5060208301518482036020860152610fb78282610f4e565b9150508091505092915050565b6000610fd08383610f87565b905092915050565b6000602082019050919050565b6000610ff082610ecd565b610ffa8185610ed8565b93508360208202850161100c85610ee9565b8060005b8581101561104857848403895281516110298582610fc4565b945061103483610fd8565b925060208a01995050600181019050611010565b50829750879550505050505092915050565b600060208201905081810360008301526110748184610fe5565b905092915050565b6000806040838503121561109357611092610bf1565b5b60006110a185828601610c44565b92505060206110b285828601610c7a565b9150509250929050565b6110c581610c59565b82525050565b600082825260208201905092915050565b60006110e782610f08565b6110f181856110cb565b9350611101818560208601610f24565b61110a81610c99565b840191505092915050565b600060408201905061112a60008301856110bc565b818103602083015261113c81846110dc565b90509392505050565b6000806040838503121561115c5761115b610bf1565b5b600083013567ffffffffffffffff81111561117a57611179610bf6565b5b61118685828601610da7565b925050602083013567ffffffffffffffff8111156111a7576111a6610bf6565b5b6111b385828601610da7565b9150509250929050565b6000602082840312156111d3576111d2610bf1565b5b60006111e184828501610c7a565b91505092915050565b6000602082019050818103600083015261120481846110dc565b905092915050565b600060208201905061122160008301846110bc565b92915050565b6000604082019050818103600083015261124181856110dc565b9050818103602083015261125581846110dc565b90509392505050565b61126781610c1b565b82525050565b6000602082019050611282600083018461125e565b92915050565b7f4f6e6c792061646d696e2063616e20706572666f726d2074686973206163746960008201527f6f6e000000000000000000000000000000000000000000000000000000000000602082015250565b60006112e46022836110cb565b91506112ef82611288565b604082019050919050565b60006020820190508181036000830152611313816112d7565b9050919050565b7f43726564656e7469616c207479706520646f6573206e6f742065786973740000600082015250565b6000611350601e836110cb565b915061135b8261131a565b602082019050919050565b6000602082019050818103600083015261137f81611343565b9050919050565b7f4e487b7100000000000000000000000000000000000000000000000000000000600052602260045260246000fd5b600060028204905060018216806113cd57607f821691505b6020821081036113e0576113df611386565b5b50919050565b60008190508160005260206000209050919050565b60006020601f8301049050919050565b600082821b905092915050565b6000600883026114487fffffffffffffffffffffffffffffffffffffffffffffffffffffffffffffffff8261140b565b611452868361140b565b95508019841693508086168417925050509392505050565b6000819050919050565b600061148f61148a61148584610c59565b61146a565b610c59565b9050919050565b6000819050919050565b6114a983611474565b6114bd6114b582611496565b848454611418565b825550505050565b600090565b6114d26114c5565b6114dd8184846114a0565b505050565b5b81811015611501576114f66000826114ca565b6001810190506114e3565b5050565b601f82111561154657611517816113e6565b611520846113fb565b8101602085101561152f578190505b61154361153b856113fb565b8301826114e2565b50505b505050565b600082821c905092915050565b60006115696000198460080261154b565b1980831691505092915050565b60006115828383611558565b9150826002028217905092915050565b61159b82610f08565b67ffffffffffffffff8111156115b4576115b3610caa565b5b6115be82546113b5565b6115c9828285611505565b600060209050601f8311600181146115fc57600084156115ea578287015190505b6115f48582611576565b86555061165c565b601f19841661160a866113e6565b60005b828110156116325784890151825560018201915060208501945060208101905061160d565b8683101561164f578489015161164b601f891682611558565b8355505b6001600288020188555050505b505050505050565b7f496e76616c69642041727765617665207472616e73616374696f6e2068617368600082015250565b600061169a6020836110cb565b91506116a582611664565b602082019050919050565b600060208201905081810360008301526116c98161168d565b9050919050565b7f43726564656e7469616c20646f6573206e6f7420657869737400000000000000600082015250565b60006117066019836110cb565b9150611711826116d0565b602082019050919050565b60006020820190508181036000830152611735816116f9565b9050919050565b7f4e487b7100000000000000000000000000000000000000000000000000000000600052603260045260246000fd5b7f4e487b7100000000000000000000000000000000000000000000000000000000600052601160045260246000fd5b60006117a582610c59565b91507fffffffffffffffffffffffffffffffffffffffffffffffffffffffffffffffff82036117d7576117d661176b565b5b60018201905091905056fea26469706673582212206b419307e2f4ab5c9c633c05b6ea3737a0da3b8c6a4b824cd2f93adbee68527a64736f6c63430008180033",
  "linkReferences": {},
  "deployedLinkReferences": {}
}